S01600004C6162506F776572537570706C792E7372656365
S11300000C9434000C948A000C9446000C94460022
S11300100C9446000C9446000C9446000C94460044
S11300200C9446000C9446000C9446000C94460034
S11300300C9446000C9446000C949C000C944600CE
S11300400C9446000C9446000C9446000C94460014
S11300500C9446000C9464000C9446000C944600E6
S11300600C9446000C94460011241FBECFEFD8E038
S1130070DEBFCDBF21E0A0E0B1E001C01D92A230FF
S1130080B207E1F70E94DD000C94E7000C94000035
S1130090ECE7F0E080818064808380818F778083C7
S11300A0AAE7B0E08C918B6A8C938C918B7F8C93B4
S11300B0ABE7B0E08C9183608C938C918B7F8C93B5
S11300C08081807F808308951F920F920FB60F92D4
S11300D011242F938F939F9382E085BB809100011D
S11300E0813069F480917800909179008115924073
S11300F010F0299A01C029981092000103C08F5F63
S1130100809300019F918F912F910F900FBE0F90BC
S11301101F9018951F920F920FB60F9211248F9370
S11301209F9395B181E0892785B99F918F910F9015
S11301300FBE0F901F9018951F920F920FB60F923B
S113014011248F939F9380910101813039F495B1EB
S113015082E0892785B91092010103C08F5F8093E3
S113016001019F918F910F900FBE0F901F901895D2
S11301705298E9E6F0E080818260808380818E7FFE
S11301808083E89A089584B1836084B9089584B51E
S11301908F7384BD84B5826084BD84B58E7F84BD35
S11301A085B5877F85BD16BC84EF87BD85B5856021
S11301B085BD85B58D7F85BD08950E94C3000E94CD
S11301C0B8000E94C7000E9448007894FFCFF894BA
S10501D0FFCF5B
S9030000FC
