S01600004C6162506F776572537570706C792E7372656365
S11300000C943B000C945C020C9450000C94500033
S11300100C9450000C9450000C9450000C9450001C
S11300200C9450000C9450000C9450000C9450000C
S11300300C9450000C9450000C940F030C9450003A
S11300400C9450000C9450000C9450000C945000EC
S11300500C9450000C9452000C9450000C945000DA
S11300600C9450000C945000DE02E402EA02F00208
S1130070F602FC02020311241FBECFEFD8E0DEBF5C
S1130080CDBF12E0A0E0B1E0E6E9F6E002C00590E1
S11300900D92A03FB107D9F70E9460000C94490368
S11300A00C9400001F920F920FB60F9211248F939D
S11300B082E085BB8F910F900FBE0F901F90189513
S11300C00E943302789460E080E00E94040280E0A1
S11300D091E00E94D80061E080E00E94040261E0A7
S11300E070E080E090E00E94E70062E080E00E941F
S11300F0040265E470E080E090E00E94E70063E0C1
S113010080E00E94040264EA71E080E090E00E94D2
S1130110E70064E080E00E94040262ED74E080E0A5
S113012090E00E94E70065E080E00E9404026CE237
S11301307FE081E090E00E94E700C5CF84B1876052
S113014084B92A9A0895813011F4299A03C081113F
S113015001C029982A98862F0E940A032A9A089592
S11301600F931F93CF93DF93C82F60E081E00E9429
S1130170A3008C2F90E0EC01CC0FDD1FCC0FDD1F12
S1130180C80FD91FC159DF4F00E010E0699181E029
S11301900E94A3000F5F1F4F05301105B9F760E0FF
S11301A081E00E94A300DF91CF911F910F910895E8
S11301B0CF93DF93EC018881882331F021960E944C
S11301C0B00089918111FBCFDF91CF910895CF9237
S11301D0DF92EF92FF92CF936B017C018AE0C81605
S11301E0D104E104F10448F48AE091E00E94D800CB
S11301F080E38C0D0E94B000BAC084E6C816D10416
S1130200E104F104B0F48BE091E00E94D800C7014E
S1130210B6012AE030E040E050E00E942103C62FFE
S113022080E3820F0E94B00080E38C0F0E94B00034
S11302309EC088EEC81683E0D806E104F10420F5D8
S11302408CE091E00E94D800C701B60124E630E0BA
S113025040E050E00E9421036B017C0180E3820FA7
S11302600E94B000C701B6012AE030E040E050E04F
S11302700E942103C62F80E3820F0E94B00080E316
S11302808C0F0E94B00073C080E1C81687E2D806C4
S1130290E104F10488F580E20E94B000C701B601D0
S11302A028EE33E040E050E00E9421036B017C0122
S11302B080E3820F0E94B000C701B60124E630E05B
S11302C040E050E00E9421036B017C0180E3820F37
S11302D00E94B000C701B6012AE030E040E050E0DF
S11302E00E942103C62F80E3820F0E94B00080E3A6
S11302F08C0F0E94B0003BC0C701B60120E137E279
S113030040E050E00E9421036B017C0180E3820FF6
S11303100E94B000C701B60128EE33E040E050E08F
S11303200E9421036B017C0180E3820F0E94B000D4
S1130330C701B60124E630E040E050E00E9421030A
S11303406B017C0180E3820F0E94B000C701B601FB
S11303502AE030E040E050E00E942103C62F80E311
S1130360820F0E94B00080E38C0F0E94B000CF91F6
S1130370FF90EF90DF90CF90089528982FEF81EEB3
S113038094E0215080409040E1F700C00000289A9A
S11303900895813011F484E001C080E0611102C04D
S11303A08D7F03C0613009F48260411102C08E7FE9
S11303B003C0413009F48160682F606280E00E94CC
S11303C0A3000895823031F0833031F0813031F46C
S11303D064E005C061E003C065E001C060E06860FE
S11303E080E00E94A3000895863028F4682F60649A
S11303F080E00E94A3000895843528F4682F606883
S113040080E00E94A3000895CF938C3070F466308E
S113041060F4C62F982F990F990F990F981B892F65
S11304200E94FC018C2F0E94F401CF910895823028
S113043031F0833031F0813031F461E005C062E0A5
S113044003C063E001C060E0646080E00E94A30038
S1130450089563E180E00E94A3000895682F80E07E
S11304600E94A3000895EF920F930F2EF5E0EF2E54
S1130470F02D01E021E040E060E081E00E94900284
S11304800E949E000E94BD0141E060E080E00E9465
S1130490C9010E94290280E00E94170280EB0E9499
S11304A02E0240E060E080E00E94C90181E00E94E9
S11304B0E2010F91EF9008951F920F920FB60F92E1
S11304C011248F939F9395B181E0892785B99F91DA
S11304D08F910F900FBE0F901F901895813021F4CB
S11304E08DB581608DBD05C0811103C08DB58E7F32
S11304F08DBD613021F48CB582608CBD05C0611165
S113050003C08CB58D7F8CBD413021F48CB58160E6
S11305108CBD0895411103C08CB58E7F8CBD0895A8
S1130520EF920F93813039F484B18C6284B92498AA
S113053080E58CBD0CC081110AC0249A84B1837DEE
S113054084B98CB580648CBD8CB58F7E8CBD6130D4
S113055021F48CB580688CBD05C0611103C08CB5D5
S11305608F778CBD413021F48CB580628CBD05C081
S1130570411103C08CB58F7D8CBD213021F48CB525
S113058088608CBD05C0211103C08CB5877F8CBDEC
S1130590013021F48CB584608CBD05C0011103C009
S11305A08CB58B7F8CBD8E2D90E0FC013197E730AC
S11305B0F10568F5EC5CFF4F0C94430340E060E008
S11305C081E00E946E0223C040E060E080E00E946F
S11305D06E021DC041E060E081E00E946E0217C01F
S11305E041E060E080E00E946E0211C040E061E002
S11305F081E00E946E020BC040E061E080E00E9456
S11306006E0205C041E061E080E00E946E020F913D
S1130610EF9008958EBD0DB407FEFDCF08951F928F
S11306200F920FB60F9211248F939F9395B182E08E
S1130630892785B99F918F910F900FBE0F901F90BE
S11306401895A1E21A2EAA1BBB1BFD010DC0AA1FFF
S1130650BB1FEE1FFF1FA217B307E407F50720F027
S1130660A21BB30BE40BF50B661F771F881F991FA2
S11306701A9469F760957095809590959B01AC01EB
S1130680BD01CF010895EE0FFF1F0590F491E02DF9
S10906900994F894FFCF69
S113069648692053617261682100202020200000EF
S11306A60000000000005F00000007000700147F40
S11306B6147F14242A7F2A122313086462364955A8
S11306C622500005030000001C2241000041221CA8
S11306D60014083E081408083E08080050300000BC
S11306E60808080808006060000020100804023E9C
S11306F65149453E00427F400042615149462141ED
S1130706454B311814127F1027454545393C4A4953
S113071649300171090503364949493606494929CB
S11307261E0036360000005636000008142241002A
S11307361414141414004122140802015109063237
S11307464979413E7E1111117E7F494949363E4120
S11307564141227F4141221C7F494949417F090980
S113076609013E4149497A7F0808087F00417F41D3
S1130776002040413F017F081422417F4040404011
S11307867F020C027F7F0408107F3E4141413E7F79
S1130796090909063E4151215E7F09192946464940
S11307A649493101017F01013F4040403F1F20403C
S11307B6201F3F4038403F6314081463070870083D
S11307C6076151494543007F414100020408102056
S11307D60041417F000402010204404040404000C1
S11307E60102040020545454787F48444438384461
S11307F6444420384444487F3854545418087E09E5
S113080601020C5252523E7F0804047800447D4093
S1130816002040443D007F1028440000417F4000F2
S11308267C041804787C0804047838444444387CEE
S113083614141408081414187C7C08040408485476
S1130846545420043F4440203C4040207C1C20401B
S1130856201C3C4030403C44281028440C50505046
S11308663C4464544C44000836410000007F0000B8
S1130876004136080010080810081F247C241F00B5
S9030000FC
