:100000000C9434000C943E000C943E000C943E0082
:100010000C943E000C943E000C943E000C943E0068
:100020000C943E000C943E000C943E000C943E0058
:100030000C943E000C943E000C943E000C943E0048
:100040000C943E000C943E000C943E000C943E0038
:100050000C943E000C943E000C943E000C943E0028
:100060000C943E000C943E0011241FBECFEFD8E04C
:10007000DEBFCDBF0E9440000C9457000C940000DE
:1000800081E084B9289A2FE986E891E021508040E8
:100090009040E1F700C0000028982FE986E891E041
:1000A000215080409040E1F700C00000EBCFF89471
:0200B000FFCF80
:00000001FF
